{
  "contractName": "Assets",
  "abi": [
    {
      "inputs": [
        {
          "internalType": "string",
          "name": "_ID",
          "type": "string"
        },
        {
          "internalType": "enum Assets.AssetType",
          "name": "_assetType",
          "type": "uint8"
        },
        {
          "internalType": "uint256",
          "name": "_value",
          "type": "uint256"
        }
      ],
      "name": "addAsset",
      "outputs": [],
      "stateMutability": "nonpayable",
      "type": "function"
    },
    {
      "inputs": [
        {
          "internalType": "string",
          "name": "_ID",
          "type": "string"
        },
        {
          "internalType": "uint256",
          "name": "_price",
          "type": "uint256"
        }
      ],
      "name": "markAsset",
      "outputs": [],
      "stateMutability": "nonpayable",
      "type": "function"
    },
    {
      "inputs": [
        {
          "internalType": "string",
          "name": "_ID",
          "type": "string"
        }
      ],
      "name": "getAssetPrice",
      "outputs": [
        {
          "internalType": "uint256",
          "name": "",
          "type": "uint256"
        }
      ],
      "stateMutability": "view",
      "type": "function"
    }
  ],
  "bytecode": "0x608060405234801561001057600080fd5b5061057b806100206000396000f3fe608060405234801561001057600080fd5b506004361061005e576000357c0100000000000000000000000000000000000000000000000000000000900480632aedd0eb14610063578063b5651c1d14610132578063ce72fb73146101f7575b600080fd5b61011c6004803603602081101561007957600080fd5b810190808035906020019064010000000081111561009657600080fd5b8201836020820111156100a857600080fd5b803590602001918460018302840111640100000000831117156100ca57600080fd5b91908080601f016020809104026020016040519081016040528093929190818152602001838380828437600081840152601f19601f8201169050808301925050505050505091929192905050506102c9565b6040518082815260200191505060405180910390f35b6101f56004803603604081101561014857600080fd5b810190808035906020019064010000000081111561016557600080fd5b82018360208201111561017757600080fd5b8035906020019184600183028401116401000000008311171561019957600080fd5b91908080601f016020809104026020016040519081016040528093929190818152602001838380828437600081840152601f19601f8201169050808301925050505050505091929192908035906020019092919050505061033e565b005b6102c76004803603606081101561020d57600080fd5b810190808035906020019064010000000081111561022a57600080fd5b82018360208201111561023c57600080fd5b8035906020019184600183028401116401000000008311171561025e57600080fd5b91908080601f016020809104026020016040519081016040528093929190818152602001838380828437600081840152601f19601f820116905080830192505050505050509192919290803560ff169060200190929190803590602001909291905050506103b3565b005b600080826040518082805190602001908083835b6020831061030057805182526020820191506020810190506020830392506102dd565b6001836020036101000a0380198251168184511680821785525050505050509050019150509081526020016040518091039020600201549050919050565b806000836040518082805190602001908083835b602083106103755780518252602082019150602081019050602083039250610352565b6001836020036101000a0380198251168184511680821785525050505050509050019150509081526020016040518091039020600201819055505050565b60405180606001604052808481526020018360018111156103d057fe5b8152602001828152506000846040518082805190602001908083835b6020831061040f57805182526020820191506020810190506020830392506103ec565b6001836020036101000a0380198251168184511680821785525050505050509050019150509081526020016040518091039020600082015181600001908051906020019061045e92919061049a565b5060208201518160010160006101000a81548160ff0219169083600181111561048357fe5b021790555060408201518160020155905050505050565b828054600181600116156101000203166002900490600052602060002090601f0160209004810192826104d05760008555610517565b82601f106104e957805160ff1916838001178555610517565b82800160010185558215610517579182015b828111156105165782518255916020019190600101906104fb565b5b5090506105249190610528565b5090565b5b80821115610541576000816000905550600101610529565b509056fea264697066735822122084e14e5a801c44494b1c4814e8d5ac552cb0abda07fdf246b36f44ce05dd0a7d64736f6c63430007040033",
  "immutableReferences": {},
  "source": "// SPDX-License-Identifier: UNLICENSED\npragma solidity ^0.7.0;\n\ncontract Assets {\n    enum AssetType {Equity, Digital}\n\n    struct Asset {\n        string ID;\n        AssetType assetType;\n        uint256 lastPrice;\n    }\n\n    mapping(string => Asset) assetByID;\n\n    function addAsset(\n        string memory _ID,\n        AssetType _assetType,\n        uint256 _value\n    ) external {\n        assetByID[_ID] = Asset({\n            ID: _ID,\n            assetType: _assetType,\n            lastPrice: _value\n        });\n    }\n\n    function markAsset(string memory _ID, uint256 _price) external {\n        assetByID[_ID].lastPrice = _price;\n    }\n\n    function getAssetPrice(string memory _ID) external view returns (uint256) {\n        return assetByID[_ID].lastPrice;\n    }\n}\n",
  "sourcePath": "/home/laurence/Work/Projects/sec_lending/blockchain/contracts/Assets.sol",
  "compiler": {
    "name": "solc",
    "version": "0.7.4+commit.3f05b770.Linux.g++"
  },
  "schemaVersion": "3.1.0",
  "updatedAt": "2020-11-24T19:23:39.232Z",
  "devdoc": {
    "kind": "dev",
    "methods": {},
    "version": 1
  },
  "userdoc": {
    "kind": "user",
    "methods": {},
    "version": 1
  }
}