{
  "contractName": "AssetPrices",
  "abi": [
    {
      "inputs": [
        {
          "internalType": "string",
          "name": "_ID",
          "type": "string"
        },
        {
          "internalType": "uint256",
          "name": "_price",
          "type": "uint256"
        }
      ],
      "name": "markAsset",
      "outputs": [],
      "stateMutability": "nonpayable",
      "type": "function"
    },
    {
      "inputs": [
        {
          "internalType": "string",
          "name": "_ID",
          "type": "string"
        }
      ],
      "name": "getAssetPrice",
      "outputs": [
        {
          "internalType": "uint256",
          "name": "",
          "type": "uint256"
        }
      ],
      "stateMutability": "view",
      "type": "function"
    }
  ],
  "bytecode": "0x608060405234801561001057600080fd5b50610306806100206000396000f3fe608060405234801561001057600080fd5b5060043610610053576000357c0100000000000000000000000000000000000000000000000000000000900480632aedd0eb14610058578063b5651c1d14610127575b600080fd5b6101116004803603602081101561006e57600080fd5b810190808035906020019064010000000081111561008b57600080fd5b82018360208201111561009d57600080fd5b803590602001918460018302840111640100000000831117156100bf57600080fd5b91908080601f016020809104026020016040519081016040528093929190818152602001838380828437600081840152601f19601f8201169050808301925050505050505091929192905050506101ec565b6040518082815260200191505060405180910390f35b6101ea6004803603604081101561013d57600080fd5b810190808035906020019064010000000081111561015a57600080fd5b82018360208201111561016c57600080fd5b8035906020019184600183028401116401000000008311171561018e57600080fd5b91908080601f016020809104026020016040519081016040528093929190818152602001838380828437600081840152601f19601f8201169050808301925050505050505091929192908035906020019092919050505061025e565b005b600080826040518082805190602001908083835b602083106102235780518252602082019150602081019050602083039250610200565b6001836020036101000a0380198251168184511680821785525050505050509050019150509081526020016040518091039020549050919050565b806000836040518082805190602001908083835b602083106102955780518252602082019150602081019050602083039250610272565b6001836020036101000a038019825116818451168082178552505050505050905001915050908152602001604051809103902081905550505056fea264697066735822122021b36d8f1b26971a69c5baf744e7322f25268a88ab7660d6c0757ae28b87c8d364736f6c63430007040033",
  "immutableReferences": {},
  "source": "// SPDX-License-Identifier: UNLICENSED\npragma solidity ^0.7.0;\n\nimport \"./Asset.sol\";\n\ncontract AssetPrices {\n    mapping(string => uint256) MTMs;\n\n    function markAsset(string memory _ID, uint256 _price) external {\n        MTMs[_ID] = _price;\n    }\n\n    function getAssetPrice(string memory _ID) external view returns (uint256) {\n        return MTMs[_ID];\n    }\n}\n",
  "sourcePath": "/home/laurence/Work/Projects/sec_lending/blockchain/contracts/AssetPrices.sol",
  "compiler": {
    "name": "solc",
    "version": "0.7.4+commit.3f05b770.Linux.g++"
  },
  "schemaVersion": "3.1.0",
  "updatedAt": "2020-11-23T18:09:47.435Z",
  "devdoc": {
    "kind": "dev",
    "methods": {},
    "version": 1
  },
  "userdoc": {
    "kind": "user",
    "methods": {},
    "version": 1
  }
}