{
  "contractName": "Counterparties",
  "abi": [
    {
      "anonymous": false,
      "inputs": [
        {
          "indexed": true,
          "internalType": "string",
          "name": "name",
          "type": "string"
        },
        {
          "indexed": true,
          "internalType": "enum Counterparties.CreditRating",
          "name": "rating",
          "type": "uint8"
        }
      ],
      "name": "CounterpartyCreated",
      "type": "event"
    },
    {
      "inputs": [
        {
          "internalType": "string",
          "name": "_name",
          "type": "string"
        },
        {
          "internalType": "enum Counterparties.CreditRating",
          "name": "_rating",
          "type": "uint8"
        }
      ],
      "name": "createCounterparty",
      "outputs": [],
      "stateMutability": "nonpayable",
      "type": "function"
    },
    {
      "inputs": [],
      "name": "getNumberOfCounterparties",
      "outputs": [
        {
          "internalType": "uint256",
          "name": "",
          "type": "uint256"
        }
      ],
      "stateMutability": "view",
      "type": "function"
    },
    {
      "inputs": [
        {
          "internalType": "string",
          "name": "_name",
          "type": "string"
        }
      ],
      "name": "getCounterpartyRatingByName",
      "outputs": [
        {
          "internalType": "enum Counterparties.CreditRating",
          "name": "",
          "type": "uint8"
        }
      ],
      "stateMutability": "view",
      "type": "function"
    }
  ],
  "bytecode": "0x608060405234801561001057600080fd5b50610442806100206000396000f3fe608060405234801561001057600080fd5b506004361061005e576000357c010000000000000000000000000000000000000000000000000000000090048063263d495c146100635780636d726d4d14610081578063b30f439d14610149575b600080fd5b61006b610223565b6040518082815260200191505060405180910390f35b6101476004803603604081101561009757600080fd5b81019080803590602001906401000000008111156100b457600080fd5b8201836020820111156100c657600080fd5b803590602001918460018302840111640100000000831117156100e857600080fd5b91908080601f016020809104026020016040519081016040528093929190818152602001838380828437600081840152601f19601f820116905080830192505050505050509192919290803560ff16906020019092919050505061022c565b005b6102026004803603602081101561015f57600080fd5b810190808035906020019064010000000081111561017c57600080fd5b82018360208201111561018e57600080fd5b803590602001918460018302840111640100000000831117156101b057600080fd5b91908080601f016020809104026020016040519081016040528093929190818152602001838380828437600081840152601f19601f820116905080830192505050505050509192919290505050610389565b6040518082600981111561021257fe5b815260200191505060405180910390f35b60008054905090565b604051806020016040528082600981111561024357fe5b8152506001836040518082805190602001908083835b6020831061027c5780518252602082019150602081019050602083039250610259565b6001836020036101000a038019825116818451168082178552505050505050905001915050908152602001604051809103902060008201518160000160006101000a81548160ff021916908360098111156102d357fe5b021790555090505060008081548092919060010191905055508060098111156102f857fe5b826040518082805190602001908083835b6020831061032c5780518252602082019150602081019050602083039250610309565b6001836020036101000a03801982511681845116808217855250505050505090500191505060405180910390207f50a0d78af8a4e82ca6fb87da95830b6b5eba3b91da2e77ac5da535066c7f897760405160405180910390a35050565b60006001826040518082805190602001908083835b602083106103c1578051825260208201915060208101905060208303925061039e565b6001836020036101000a038019825116818451168082178552505050505050905001915050908152602001604051809103902060000160009054906101000a900460ff16905091905056fea2646970667358221220d02a8b2c17cee1de45c10dbad104494ff4603c4cb33fd71575e3e4edd8218c8664736f6c63430007040033",
  "immutableReferences": {},
  "source": "// SPDX-License-Identifier: UNLICENSED\npragma solidity ^0.7.0;\n\ncontract Counterparties {\n    enum CreditRating {AAA, AA, A, BBB, BB, B, CCC, CC, C, D}\n\n    struct Counterparty {\n        CreditRating rating;\n    }\n    uint256 numberCounterparties;\n    mapping(string => Counterparty) counterparties;\n\n    event CounterpartyCreated(string indexed name, CreditRating indexed rating);\n\n    function createCounterparty(string memory _name, CreditRating _rating)\n        external\n    {\n        counterparties[_name] = Counterparty({rating: _rating});\n        numberCounterparties++;\n        emit CounterpartyCreated(_name, _rating);\n    }\n\n    function getNumberOfCounterparties() external view returns (uint256) {\n        return numberCounterparties;\n    }\n\n    function getCounterpartyRatingByName(string memory _name)\n        external\n        view\n        returns (CreditRating)\n    {\n        return counterparties[_name].rating;\n    }\n}\n",
  "sourcePath": "/home/laurence/Work/Projects/sec_lending/blockchain/contracts/Counterparties.sol",
  "compiler": {
    "name": "solc",
    "version": "0.7.4+commit.3f05b770.Linux.g++"
  },
  "schemaVersion": "3.1.0",
  "updatedAt": "2020-11-24T16:13:08.460Z",
  "devdoc": {
    "kind": "dev",
    "methods": {},
    "version": 1
  },
  "userdoc": {
    "kind": "user",
    "methods": {},
    "version": 1
  }
}