{
  "contractName": "Loans",
  "abi": [
    {
      "inputs": [
        {
          "internalType": "string",
          "name": "_cptyA",
          "type": "string"
        },
        {
          "internalType": "string",
          "name": "_cptyB",
          "type": "string"
        },
        {
          "internalType": "string",
          "name": "_asset",
          "type": "string"
        },
        {
          "internalType": "string",
          "name": "collateral",
          "type": "string"
        },
        {
          "internalType": "uint256",
          "name": "_amount",
          "type": "uint256"
        },
        {
          "internalType": "uint256",
          "name": "_fee",
          "type": "uint256"
        },
        {
          "internalType": "uint256",
          "name": "_start",
          "type": "uint256"
        },
        {
          "internalType": "uint256",
          "name": "_end",
          "type": "uint256"
        },
        {
          "internalType": "string",
          "name": "_URL",
          "type": "string"
        }
      ],
      "name": "createLoan",
      "outputs": [],
      "stateMutability": "nonpayable",
      "type": "function"
    },
    {
      "inputs": [
        {
          "internalType": "uint256",
          "name": "_ID",
          "type": "uint256"
        }
      ],
      "name": "getLoanCounterparties",
      "outputs": [
        {
          "internalType": "string",
          "name": "",
          "type": "string"
        },
        {
          "internalType": "string",
          "name": "",
          "type": "string"
        }
      ],
      "stateMutability": "view",
      "type": "function"
    },
    {
      "inputs": [
        {
          "internalType": "uint256",
          "name": "_ID",
          "type": "uint256"
        }
      ],
      "name": "getLoanAssetDetails",
      "outputs": [
        {
          "internalType": "string",
          "name": "",
          "type": "string"
        },
        {
          "internalType": "uint256",
          "name": "",
          "type": "uint256"
        }
      ],
      "stateMutability": "view",
      "type": "function"
    },
    {
      "inputs": [
        {
          "internalType": "uint256",
          "name": "_ID",
          "type": "uint256"
        }
      ],
      "name": "getLoanFee",
      "outputs": [
        {
          "internalType": "uint256",
          "name": "",
          "type": "uint256"
        }
      ],
      "stateMutability": "view",
      "type": "function"
    },
    {
      "inputs": [
        {
          "internalType": "uint256",
          "name": "_ID",
          "type": "uint256"
        }
      ],
      "name": "getLoanTimes",
      "outputs": [
        {
          "internalType": "uint256",
          "name": "",
          "type": "uint256"
        },
        {
          "internalType": "uint256",
          "name": "",
          "type": "uint256"
        }
      ],
      "stateMutability": "view",
      "type": "function"
    },
    {
      "inputs": [
        {
          "internalType": "uint256",
          "name": "_ID",
          "type": "uint256"
        }
      ],
      "name": "getLoanTermsURL",
      "outputs": [
        {
          "internalType": "string",
          "name": "",
          "type": "string"
        }
      ],
      "stateMutability": "view",
      "type": "function"
    }
  ],
  "bytecode": "0x608060405234801561001057600080fd5b50610ca6806100206000396000f3fe608060405234801561001057600080fd5b506004361061007f576000357c0100000000000000000000000000000000000000000000000000000000900480633b52c608146100845780638ae0edba1461012b578063936f4df41461016d578063a5bdedcb146101b6578063d024d9b714610264578063d7a775ca14610377575b600080fd5b6100b06004803603602081101561009a57600080fd5b81019080803590602001909291905050506106b7565b6040518080602001828103825283818151815260200191508051906020019080838360005b838110156100f05780820151818401526020810190506100d5565b50505050905090810190601f16801561011d5780820380516001836020036101000a031916815260200191505b509250505060405180910390f35b6101576004803603602081101561014157600080fd5b810190808035906020019092919050505061076e565b6040518082815260200191505060405180910390f35b6101996004803603602081101561018357600080fd5b810190808035906020019092919050505061078d565b604051808381526020018281526020019250505060405180910390f35b6101e2600480360360208110156101cc57600080fd5b81019080803590602001909291905050506107c5565b6040518080602001838152602001828103825284818151815260200191508051906020019080838360005b8381101561022857808201518184015260208101905061020d565b50505050905090810190601f1680156102555780820380516001836020036101000a031916815260200191505b50935050505060405180910390f35b6102906004803603602081101561027a57600080fd5b8101908080359060200190929190505050610899565b604051808060200180602001838103835285818151815260200191508051906020019080838360005b838110156102d45780820151818401526020810190506102b9565b50505050905090810190601f1680156103015780820380516001836020036101000a031916815260200191505b50838103825284818151815260200191508051906020019080838360005b8381101561033a57808201518184015260208101905061031f565b50505050905090810190601f1680156103675780820380516001836020036101000a031916815260200191505b5094505050505060405180910390f35b6106b5600480360361012081101561038e57600080fd5b81019080803590602001906401000000008111156103ab57600080fd5b8201836020820111156103bd57600080fd5b803590602001918460018302840111640100000000831117156103df57600080fd5b91908080601f016020809104026020016040519081016040528093929190818152602001838380828437600081840152601f19601f8201169050808301925050505050505091929192908035906020019064010000000081111561044257600080fd5b82018360208201111561045457600080fd5b8035906020019184600183028401116401000000008311171561047657600080fd5b91908080601f016020809104026020016040519081016040528093929190818152602001838380828437600081840152601f19601f820116905080830192505050505050509192919290803590602001906401000000008111156104d957600080fd5b8201836020820111156104eb57600080fd5b8035906020019184600183028401116401000000008311171561050d57600080fd5b91908080601f016020809104026020016040519081016040528093929190818152602001838380828437600081840152601f19601f8201169050808301925050505050505091929192908035906020019064010000000081111561057057600080fd5b82018360208201111561058257600080fd5b803590602001918460018302840111640100000000831117156105a457600080fd5b91908080601f016020809104026020016040519081016040528093929190818152602001838380828437600081840152601f19601f820116905080830192505050505050509192919290803590602001909291908035906020019092919080359060200190929190803590602001909291908035906020019064010000000081111561062f57600080fd5b82018360208201111561064157600080fd5b8035906020019184600183028401116401000000008311171561066357600080fd5b91908080601f016020809104026020016040519081016040528093929190818152602001838380828437600081840152601f19601f820116905080830192505050505050509192919290505050610a07565b005b60606000808381526020019081526020016000206009018054600181600116156101000203166002900480601f0160208091040260200160405190810160405280929190818152602001828054600181600116156101000203166002900480156107625780601f1061073757610100808354040283529160200191610762565b820191906000526020600020905b81548152906001019060200180831161074557829003601f168201915b50505050509050919050565b6000806000838152602001908152602001600020600101549050919050565b600080600080848152602001908152602001600020600701546000808581526020019081526020016000206008015491509150915091565b6060600080600084815260200190815260200160002060020160008085815260200190815260200160002060030154818054600181600116156101000203166002900480601f0160208091040260200160405190810160405280929190818152602001828054600181600116156101000203166002900480156108895780601f1061085e57610100808354040283529160200191610889565b820191906000526020600020905b81548152906001019060200180831161086c57829003601f168201915b5050505050915091509150915091565b606080600080848152602001908152602001600020600501600080858152602001908152602001600020600601818054600181600116156101000203166002900480601f01602080910402602001604051908101604052809291908181526020018280546001816001161561010002031660029004801561095b5780601f106109305761010080835404028352916020019161095b565b820191906000526020600020905b81548152906001019060200180831161093e57829003601f168201915b50505050509150808054600181600116156101000203166002900480601f0160208091040260200160405190810160405280929190818152602001828054600181600116156101000203166002900480156109f75780601f106109cc576101008083540402835291602001916109f7565b820191906000526020600020905b8154815290600101906020018083116109da57829003601f168201915b5050505050905091509150915091565b6002600081548092919060010191905055506001896040518082805190602001908083835b60208310610a4f5780518252602082019150602081019050602083039250610a2c565b6001836020036101000a038019825116818451168082178552505050505050905001915050908152602001604051809103902060405180610140016040528060025481526020018681526020018981526020018781526020018881526020018b81526020018a81526020018581526020018481526020018381525090806001815401808255809150506001900390600052602060002090600a020160009091909190915060008201518160000155602082015181600101556040820151816002019080519060200190610b23929190610bc5565b50606082015181600301556080820151816004019080519060200190610b4a929190610bc5565b5060a0820151816005019080519060200190610b67929190610bc5565b5060c0820151816006019080519060200190610b84929190610bc5565b5060e082015181600701556101008201518160080155610120820151816009019080519060200190610bb7929190610bc5565b505050505050505050505050565b828054600181600116156101000203166002900490600052602060002090601f016020900481019282610bfb5760008555610c42565b82601f10610c1457805160ff1916838001178555610c42565b82800160010185558215610c42579182015b82811115610c41578251825591602001919060010190610c26565b5b509050610c4f9190610c53565b5090565b5b80821115610c6c576000816000905550600101610c54565b509056fea2646970667358221220d0ec3bfda899c5af4998c4987110ec73692a67d68bee25bcf232f76ed732ebe564736f6c63430007040033",
  "immutableReferences": {},
  "source": "// SPDX-License-Identifier: UNLICENSED\npragma solidity ^0.7.0;\n\nimport \"./Assets.sol\";\n\ncontract Loans {\n    struct Loan {\n        uint256 loanID;\n        uint256 fee;\n        string loanedAsset;\n        uint256 amount;\n        string collateralItems;\n        string counterpartyA; // lender\n        string counterpartyB;\n        uint256 start;\n        uint256 end;\n        string termsURL;\n    }\n    mapping(uint256 => Loan) loansByID;\n    mapping(string => Loan[]) loansByLender;\n    uint256 latestLoanNumber;\n\n    function createLoan(\n        string memory _cptyA,\n        string memory _cptyB,\n        string memory _asset,\n        string memory collateral,\n        uint256 _amount,\n        uint256 _fee,\n        uint256 _start,\n        uint256 _end,\n        string memory _URL\n    ) external {\n        latestLoanNumber++;\n        loansByLender[_cptyA].push(\n            Loan({\n                loanID: latestLoanNumber,\n                fee: _fee,\n                loanedAsset: _asset,\n                counterpartyA: _cptyA,\n                counterpartyB: _cptyB,\n                collateralItems: collateral,\n                amount: _amount,\n                start: _start,\n                end: _end,\n                termsURL: _URL\n            })\n        );\n    }\n\n    function getLoanCounterparties(uint256 _ID)\n        external\n        view\n        returns (string memory, string memory)\n    {\n        return (loansByID[_ID].counterpartyA, loansByID[_ID].counterpartyB);\n    }\n\n    function getLoanAssetDetails(uint256 _ID)\n        external\n        view\n        returns (string memory, uint256)\n    {\n        return (loansByID[_ID].loanedAsset, loansByID[_ID].amount);\n    }\n\n    function getLoanFee(uint256 _ID) external view returns (uint256) {\n        return loansByID[_ID].fee;\n    }\n\n    function getLoanTimes(uint256 _ID)\n        external\n        view\n        returns (uint256, uint256)\n    {\n        return (loansByID[_ID].start, loansByID[_ID].end);\n    }\n\n    function getLoanTermsURL(uint256 _ID)\n        external\n        view\n        returns (string memory)\n    {\n        return loansByID[_ID].termsURL;\n    }\n}\n",
  "sourcePath": "/home/laurence/Work/Projects/sec_lending/blockchain/contracts/Loans.sol",
  "compiler": {
    "name": "solc",
    "version": "0.7.4+commit.3f05b770.Linux.g++"
  },
  "schemaVersion": "3.1.0",
  "updatedAt": "2020-11-24T19:23:39.236Z",
  "devdoc": {
    "kind": "dev",
    "methods": {},
    "version": 1
  },
  "userdoc": {
    "kind": "user",
    "methods": {},
    "version": 1
  }
}